:020000040800F2
:10000000B0080020354900085D4400085F4400083E
:1000100000000000000000000000000000000000E0
:100020000000000000000000000000006B44000819
:1000300000000000000000006D4400086F4400084C
:100040004B11000800000000C711000877140008D9
:10005000CB14000863180008671800087F440008E4
:1000600000000000D3440008F3230008CB2400085C
:100070006F380008C7380008A342000800000000DD
:10008000EF4200080000000000000000FB430008F1
:1000900000000000754500085B440008FB480008AC
:1000A0000000000023490008000000005749000834
:1000B000F0B5A5B004000D002A9E00BF73A003C8D0
:1000C0006F4603C7089506A83B21465400201190AF
:1000D00004940392029313E0039C3500049F21785B
:1000E0000898B8470890002800D1B5E01198401C46
:1000F0001190641C6D1EF2D104970398801903902F
:1001000003980078252809D100260B960C960D96A9
:100110000E960F9610960021039C0FE00021C94314
:100120006A46039800F0F6FF060001D1119895E0A9
:10013000D2D50126E1E7012008430100641C2078A4
:100140002028F8D023280CD02B2804D02D2804D028
:1001500030280AD084E00220EEE70A00042111438F
:10016000ECE7080008210143E8E708001021FAE75E
:1001700013960AE0139A444B9A4205DA93009A18B0
:100180005200101830381390641C20780200303A66
:100190000A2AEFD320782E2803D00020C0431290E3
:1001A00027E0641C22782A2A0AD102980068029A61
:1001B00010600268001D029B18601292641C18E017
:1001C0002D2A01D1641C00E0002212960CE0002AC6
:1001D00009D1129B2C4DAB4205DA9D00EB185B0058
:1001E000181830381290641C20780300303B0A2B1A
:1001F000EDD306AD2987277826A0390000F09AFFB5
:10020000002801D0641C00E000273A202F54285C0D
:10021000682804D12178682901D1622005E06C2882
:1002200006D120786C2803D171203A216854641CCF
:1002300016A80A902378029A06A9049800F068F894
:10024000611C0391002807D116AA06A9049800F0A2
:10025000F9F9002800D453E70020C04325B0F0BDD1
:100260002A2885D10298026802601068121D029B3C
:100270001A601390002804D5424213920A00042108
:100280001143641C86E70000CBCCCC0C00000000BE
:1002900000000000686A6C747A4C00000B00622851
:1002A0001CD068280DD06A2803D06C2823D0712870
:1002B00021D11A68D21D072082431A6003CA1A602E
:1002C0007047002A19681960086803D0091D196071
:1002D00000B217E0091D196080B217E0002A196802
:1002E0001960086803D0091D196040B20AE0091DB1
:1002F0001960C0B20AE0002A19681960086803D0C2
:10030000091D1960C1177047091D19600021704748
:100310007CB50C0011001E0025693200253A00D181
:100320004AE11C3A00D182E0121F022A00D87EE086
:100330000E3A00D104E1521F58D0093A77D0921EEC
:1003400016D0521E34D0521E022A70D9121F2FD03E
:10035000521F00D194E0521E48D0521E00D1DEE060
:10036000D21E00D1FAE0921E40D0D21E3ED029E12A
:100370003A22A25C6C2A09D06069421C62610A6858
:100380000A601368121D0A602B5425E10A680A608E
:100390001368121D0A60009300210191C943216373
:1003A0006A46210000F0D0F9002800D414E100E1F1
:1003B00001223A20205CFFF771FF03C4083C0029AA
:1003C00004DA6069411C61612D210DE0208F8107F5
:1003D00004D56069411C61612B2105E0C00721D56E
:1003E0006069411C6161202129541BE000223A20F0
:1003F000205CFFF753FF03C4083C3820205C000753
:1004000010D503CC083C002901D100280AD02020B7
:100410003043782806D1606930212954401C411CA2
:1004200061612E5460692818E060310084E008683A
:10043000C01D0722904308600CC808600CC4083C2B
:1004400003CC083CC80F04D06069411C61612D21B8
:100450000DE0208F810704D56069411C61612B216B
:1004600005E0C00704D56069411C61612021295461
:1004700060692818E0603100200000F081FAABE0EC
:100480003B20205C002803D00024E44353A074E008
:100490003A20205C622808D0682823D06A2812D02D
:1004A0006C282ED071280ED02BE00A680A601068E4
:1004B000121D0A60002803D10024E4434DA05CE033
:1004C000E16A017088E0086808600268001D086041
:1004D000002A03D10024E44346A04EE0E06AC1179D
:1004E00003C279E00A680A601068121D0A600028D9
:1004F00004D10024E44300BF3EA03EE0E16A018055
:100500006AE00A680A601068121D0A60002803D1B8
:100510000024E44337A030E0E16A01605CE0086851
:1005200008600268001D08600020C04300211040E0
:1005300003C4083CE5607821200000F069F94BE035
:100540006C223A23E2540B680B601A681B1D0B6087
:10055000002A29D10024E4432CA00EE03A22A25C18
:100560006C2AF0D0086808600568001D0860E56026
:10057000002D06D10024E4432BA000F0E7FD201A53
:1005800076BD266B002E03D5280000F003FE09E09F
:1005900032000021280000F005FE002801D0401B99
:1005A00000E03000A06117E0210000F0CDF8002845
:1005B00012D50020C04376BD6069411C61612521D0
:1005C000295409E06169481C606125226A543100A0
:1005D00002D0411C61612E54002076BD7072696E9C
:1005E00074665F733A20256E20646973616C6C6F6A
:1005F000776564007072696E74663A206261642087
:10060000256E20617267756D656E74007072696E1B
:1006100074665F733A2062616420256C7320617296
:1006200067756D656E7400007072696E74665F73D5
:100630003A2062616420257320617267756D656E72
:1006400074000000F8B506000C001700606B6169CB
:10065000401A216A401AA169401A616A401AE16988
:10066000401AA16A401A00903820205C40070ED43E
:10067000009800280BDD05462021A068B047A06047
:1006800000285DD0E06A401CE0626D1EF4D13A00A3
:1006900063692100300000F0EAFC002850D1256A8F
:1006A000002D0ADD3021A068B047A060002847D0A7
:1006B000E06A401CE0626D1EF4D1A369E26821008B
:1006C000300000F0D4FC00283AD1656A002D0ADD24
:1006D0003021A068B047A060002831D0E06A401CFB
:1006E000E0626D1EF4D1E369E068A169421821005F
:1006F000300000F0BCFC002822D1A56A002D0ADDE4
:100700003021A068B047A060002819D0E06A401CE2
:10071000E0626D1EF4D13820205C40070ED50098B1
:1007200000280BDD05462021A068B047A060002806
:1007300006D0E06A401CE0626D1EF4D10020F2BDDC
:100740000020C043F2BD0000F8B5A6B004000D00C3
:1007500016002F6B002F00D5864F00F02FFD696B20
:100760000A1800BF28A003C803AB03C3812A47D2DD
:100770000020059400950290002F30DD03AA316817
:1007800001A800F0CCFC05003AD43068002801D163
:100790006D1E35D4AF4222DB009840694019812894
:1007A0000CD300240098446306AA00990598FFF72B
:1007B00049FF0290002812D40098446100984469CF
:1007C00006A82A0001A9001900F0FEFC6019009992
:1007D00048613068002802D0361D7F1BCCE7059B9E
:1007E000009C0298002804D106AA21001800FFF7F7
:1007F00029FF002802D100216161616327B0F0BDAB
:100800000020C043FAE700000000000000000000E4
:10081000F2B586B0040025690A466F2A01D108277F
:1008200007E0084620210143782901D00A2700E08B
:1008300010273C2603CC083C04AB03C3642A01D038
:10084000692A09D1002907DA04A803C80022002375
:10085000121A8B4104A80CC004A803C8002920D197
:1008600000281ED1206B00281BD1082F4ED1382024
:10087000205C00074AD53B26302046E000290ED5F3
:100880003821615C14220A40102A08D1616B626928
:10089000891A226A891A081A002800DD206207B026
:1008A000F0BD0294009504A830C8761E0196200081
:1008B00029003A00FB1700F0B5FC3032D2B23A2AD8
:1008C00003DB6846007E51381218009882552000DC
:1008D00029003A00FB1700F0A5FC04000D0001D12F
:1008E000002C05D00298C068009989198842DCD391
:1008F000029C009D082F09D13820205C000705D5F7
:10090000A85D302802D0761E3020A8553C20801BE0
:10091000A061A919E160216B8842AFDA081A206250
:10092000208F154901402187B9E7F8B50026134FFC
:1009300004000D00009216E001200099084007D045
:1009400032003B002000290000F0A1FC04000D0053
:100950000098401000903000390032003B0000F059
:1009600096FC06000F0000980028E5D12000290021
:10097000F4BD0000FFFFFF7FEFFF000000002440F8
:10098000F3B593B005AA03C802AB03C314A800785B
:1009900020210143019161290BD01398006B00289D
:1009A00001D5062003E004D1672902D10120139963
:1009B0000863139803C84C006415641C13D10B031F
:1009C00011D003201399886114A8007861381A287F
:1009D00004D255497944FF31513116E053497944E5
:1009E000FF314B3111E04C006415641C13D10B0333
:1009F00011D103201399886114A8007861381A284E
:100A00001BD34B497944FF31293103221398C06825
:100A100000F0DAFBC9E110AB03C391A6C0CE10A869
:100A200003C8394080256D03A9420BD200230093EF
:100A300010AB30CB604069400EE03E497944FF3155
:100A40000B39E2E7080D884C2418009410A803C85D
:100A5000874D0D4085492943139B03C301986128A5
:100A600013D11398C06830210170811C139BD96089
:100A700014A90978612901D1782100E05821417039
:100A800013984069801C13994861139830C8264018
:100A90002F4005D1002E03D100206B4698807BE1CA
:100AA0000198612800D0A9E01398006B002801D5B7
:100AB000212000E0401C0190019F7F1C02A803C878
:100AC0000022002300F0A5FC02D280200006454051
:100AD0000098001F009069460A7505A8461C002F63
:100AE00000DC68E120002900002280235B0300F085
:100AF000A9FC00D95FE169004A0D11001C31002AF0
:100B00001AD0002918DDB74A914206DB10052900EA
:100B1000802212061140014312E0554A2A4008057E
:100B2000104305000EE000BFFC3D0000FC3D00004E
:100B3000003E0000F83D000029008022120611400E
:100B400000240D002000290000F096FC0290FF1FF9
:100B5000002F09DD00F0CAFC02000B002000290074
:100B600000F031FD04000D00F01D0721029A04E0A1
:100B7000401E0F23134003701211002A01DD491E8D
:100B8000F6D5491E00D512E1401E00220270F8E79A
:100B90000023040005AD2D1901E0401E6D1E641EEA
:100BA0002E789E42F9D00F2B04D14B1C1B5D5B1C91
:100BB000491C0B55002C04D505AA401C0099091DA1
:100BC0000091431E11D4D41814A909782578303522
:100BD000EDB2392D02DD0E003A3EAD1925705B1ED7
:100BE000641E002BF2D514AB19701399096B002900
:100BF00000D4CEE0411E139B1963CAE002A803C8CB
:100C00000022002300F005FC06D202A803C88022BF
:100C10001206514002AA03C200987349484373491F
:100C200000F05EFD009007200099401A049005DD59
:100C3000024602A803C8FFF778FE0AE042420020FD
:100C40006B49FFF772FE02000B0002A803C800F018
:100C5000A1FD019A662A0DD1009A0A320BE000BF6D
:100C6000FFFFFFFFFFFFFF7F02FCFFFF0000E03FF1
:100C7000FFFF0F800622139B1B6B9A18142A00DDBE
:100C8000142230236C46237505AB5C1C02E002A8DD
:100C900003C8049A002A3CDD02AB03C3049202A8F5
:100CA00003C800F0FBFB0F90064608340425300013
:100CB0000A2100F018FD0F0030000A2100F013FD9A
:100CC00006003037601E077030000A2100F00BFD6F
:100CD0000F0030000A2100F006FD0600A41E303788
:100CE00027706D1EE3D1083404980838049000285A
:100CF000CDDD0F9800F0EAFB02000B0002A803C84C
:100D000000F061FC00223B4B00F0C1FA02AA03C2D2
:100D1000C5E705A8401C211A05A8421C009802E05E
:100D2000491E401E521C1378302BF9D000900198B8
:100D3000662802D10098401C05E00198652801D181
:100D4000012000E00020139B1B6B1818814200DA81
:100D5000481E00281DD4884204DA115C352901DBC5
:100D6000392300E030230400511E0D1901E0401E1C
:100D70006D1E641E2E789E42F9D0392B02D1135D70
:100D80005B1C1355002C04D50A00401C0099491C1B
:100D9000009169468880009800B20090019B1BB2C8
:100DA00014A80178139800F027F815B0F0BDC61DFF
:100DB000002F00DD96E605A9481C331A05A8421C41
:100DC0000198834200DC1800002800D50DE7984206
:100DD00000DBDDE64B1C1B5C072B00DCD8E60F2399
:100DE000D7E60000FF07000097750000A08601000D
:100DF0000000F03F84D79741F6B583B006000F009E
:100E00001C0000F091F96946406A00780870356B63
:100E1000002C03DC012400BFA1A004902020384353
:100E2000662803D10A9F3FB27F1C19E0672800D0D3
:100E300082E00A9800B20321C943884200DA7FE0C9
:100E4000A8427DDA0A9F3FB27F1C3820305C000741
:100E500002D4AC4200DA25003FB2ED1B00D50025DC
:100E6000B169F06840183FB2002F25DC491C3022E0
:100E70000270002D03DC3820305C000704D5684682
:100E80000078F2685054491CB1617842854200DA1A
:100E90006F423FB278427062ED19A54200DA2C0031
:100EA00024B2F46122000499F068B369C01800F01C
:100EB0008BF9281BB062C2E03A00944217DA220094
:100EC000049900F081F9B0690019B061391B7162B1
:100ED000002D03DC3821715C090706D569460978C5
:100EE000F2681154F069401CF061B562A7E0049902
:100EF00000F06AF9B069C019E41B002D03DC382149
:100F0000715C090704D569460978F2681154401CE0
:100F1000B06124B2A54200DA2C0024B22200049869
:100F2000C119F068B369C01800F04EF9B069001932
:100F3000B061281B706282E0612F11D1702712E02E
:100F4000AC4204DA3821715C090700D425006D1E1B
:100F500000D50025672F01D1652704E0452702E071
:100F6000412F00D15027B069411CB161049A127819
:100F7000F3681A540498401C0490002D03DC3820B8
:100F8000305C000718D5481CB0616A461278F368D7
:100F90005A54002D10DD641E24B2A54200DA2C0044
:100FA00024B222000499F368181800F00DF9B06912
:100FB0000019B061281B7062F068B16940180770B1
:100FC0000A9909B2002904D42B214170801C049095
:100FD00006E02D224270801C049048426946088534
:100FE00000246D460A9800B205E00A2100F078FB63
:100FF0002970641C6D1C00B20028F6DC012C09DC91
:1010000020203843652805D13020049908700498C1
:10101000401C0490002C28D13020049908700498BA
:10102000401C07E0641E6946095D30310170401CB8
:10103000002CF7DCF168B2698918401AF061382099
:10104000305C1421014010290DD17069B16940183C
:10105000716A4018F1694018B16A4018716B884292
:1010600001DA081A306205B0F0BD0498E0E7F8B57F
:1010700007000020002B12D00E0014001D00217864
:10108000B068B847B060002807D0F06A401CF06232
:101090000020641C6D1E02D0F1E70020C043F2BDA9
:1010A00030000268531C0360117070471F4870477E
:1010B00030B45368D418042B0BDA002909D0057812
:1010C00025700578002D04D05B1C491E641C401C53
:1010D000F1E7536030BC704738B500290ED01D00D1
:1010E0001400FFF7E5FF616820006A6B904701225A
:1010F000D243811A02D0491E02D004E0012000E050
:101100000020C04332BD0021616032BD80B5DA6B82
:10111000904702BD80B5054BFFF7DEFF02BD80B5ED
:10112000024BFFF7F3FF02BD01487047B4010020F6
:101130007C01002000BFC9B200E0401C02788A4256
:1011400002D0002AF9D100207047FEE780B50028C0
:1011500001D100BF07A006490B68002B03D0222253
:101160000021984701E000F076FB222002BD00003C
:10117000A4040020636F6E73747261696E742068DA
:10118000616E646C65723A20626164206D65737390
:1011900061676500010000E0491C0A78002AFBD164
:1011A000081A7047C9B201E0401C521E002A03D041
:1011B00003788B42F8D170470020704780B5FFF765
:1011C00075FF006C02BDFEE7124207D08B0706D008
:1011D0000B78491C0370401C521EF7D870478307D8
:1011E00006D00B78491C0370401C521EF9D1704781
:1011F00070B4103A03D378C9103A78C0FBD25307C1
:1012000001D318C918C001D508C908C0D20704D332
:101210000B880380891C801C002A01D50B78037081
:1012200070BC7047124224D0994228D970B500256D
:101230001B4202D00C00002109E0002401264918BD
:101240006441944200D3A41A7641F8D331000126B8
:1012500001E0764109D2001864416D41A41A9D4114
:10126000F7D2A4185D41B619F5D3300022002B0047
:1012700070BD1B42D8D108B500F0F2FA08BD01D10B
:101280009042D3D202000B00002100207047F0B53D
:101290000E005E400125ED072E40B446AE0ADF1871
:1012A0004C18F44208D2F7420ED2640D01D07F0DE3
:1012B00012D100206146F0BD05D1F74201D87F0D63
:1012C00005D10020C143F0BDFBD1640DF9D0002051
:1012D000C143490549088FE0E419C902DB022943EB
:1012E0002B43DB0A460DC00231438E4630B487B231
:1012F00095B27D432E0CADB2140C7C43A419260C80
:10130000240425439CB27C43A419190C7943270C6F
:10131000C919A4B20F043C43090C000C97B247430F
:101320002E0CBE193543ADB2170C4743360CBF190E
:10133000A6B2BF193E043543240C3E0C36199FB2A9
:101340004743BF19BCB23E0C89191F0C47437F1895
:101350003E043443390C704680B297B247432E0C9A
:10136000BE193543ADB2170C4743360CBF19A6B2B0
:10137000BF193E043543240C3E0C36199FB2474337
:10138000BF19BCB23E0C89191F0C47437F183E049D
:101390003443390C77463F0C90B278432E0C8019B9
:1013A0000604ADB22E43050CA0B22D18120C7A43E0
:1013B0005019020C80B2240CA4189AB27A43121964
:1013C00014042043120C89181B0C7B43C91830BC31
:1013D000EF0A394203D1B61940414941641E6F12E8
:1013E000BF0DE41B0BDBFF19BC4211DA24050027FB
:1013F0004208AE417841614166463143F0BD641C0C
:1014000005D1401C6141CF0201D34908F4E750E700
:101410005DE730B4012464054D00EC420BD85D005B
:10142000EC4208D80C001C4364000443144304D26B
:10143000994200D1904230BC7047FCD08B42FAD127
:101440008242F8E730B4012464054D00EC420BD829
:101450005D00EC4208D80C001C43640004431443B4
:1014600004D28B4200D1824230BC7047FCD09942FA
:10147000FAD19042F8E7FEE7F4464A1805D200F0A8
:101480000FF801D580174008604700F009F80121E6
:10149000C907884200D90800404260474A1812D262
:1014A000400DC90208430121C9070843520D4021DC
:1014B0000901521A521C06D452421F3201D4D040A4
:1014C0007047C017704700207047FEE701004222B6
:1014D0001201D21E004207D002D4521E0018FCD5C1
:1014E000C10A400512058918704700000100EED5B9
:1014F0004042F446FFF7EBFF0122D2071143604759
:10150000F0B40125ED070F005F404FD48B4200D1AE
:10151000824205D98446100062468C461900634613
:10152000DF184C18640D7F0D3AD0661C760537D055
:10153000E61B352E34DCDB022B43DB0A0C0DC90223
:101540002943C912202E0DDB1700203E06D01F00B4
:10155000F741F3405F400026012A7741C0187141EE
:101560000DD217E01700F741F2405740F3415A40BF
:10157000B340F3405A400026801859410AD3A21CB8
:1015800052050FD0C207012F724117004008CB0748
:1015900018434908641C24054208AF417041614169
:1015A000F0BC7047641C21050020F9E76B4010E097
:1015B0006B40ABE7F742F3D1E943F1E72442EFD1C7
:1015C00000200021ECE7F0B40125ED070F005F409B
:1015D000EED40C00871A9C4105D2C01BA141D21940
:1015E000634169406B40AE0ADF184C18F442E1D207
:1015F000640D7F0DE2D0E61B362ED1DCDB022B43DF
:10160000DB0AA4460C0DC9022943C90A012E28DCB5
:1016100004D1D6075208DF073A435B08EF0A764247
:101620009041994114D039423BD1B61940414941CA
:10163000761C394204D1761C001849413942FAD04F
:10164000B9436746B74208D9A41B24052143A7E73D
:101650000042EAD13642E8D1A2E7E40AE1070020DD
:101660009EE7202E0BDD203E1F00F340F7415F4038
:10167000012A002257417E42984191410BE0170018
:10168000F741F2405740F3415A40B340F3405A40CB
:101690007E42904199410A0303D2641EB61940412B
:1016A00049410027641E24054208AE41784161414A
:1016B000F0BC7047F446002804D4494200F013F807
:1016C000404260474042002905D45FD000F00BF84B
:1016D000404249426047494200F005F849426047AC
:1016E00003460B43E6D40022030A8B420BD20309C4
:1016F0008B4219D243088B422ED2411A00D20146A6
:10170000524110467047FF2209023FD012068B4219
:1017100005D3121209028B4201D3121209020309E6
:101720008B4219D300E0090AC3098B4201D3CB01D4
:10173000C01A524183098B4201D38B01C01A524116
:1017400043098B4201D34B01C01A524103098B421A
:1017500001D30B01C01A5241C3088B4201D3CB0005
:10176000C01A524183088B4201D38B00C01A5241E8
:1017700043088B4201D34B00C01A5241884200D328
:10178000401A5241CFD201461046704708B500F0CA
:1017900069F808BDF0B40E005E400125ED072E404B
:1017A000B446AE0ADF184C18F4423BD2F74241D29D
:1017B000640D43D07F0D38D0E41BC902DB022943FE
:1017C0002B43CF0ADB0A0600B61A9F4104D2641EDF
:1017D000B6197F41B6185F416812800D24180018B1
:1017E000844222DAE80C0021B6197F41B61A9F41E3
:1017F00002D2B6185F413F1C40414941F4D3241C3A
:1018000021DD2405B6197F41B61A9F4105D3374320
:10181000C60737430026012F7041614166463143B8
:10182000F0BC7047FCD1F74205D20020C143490506
:101830004908F3E704D00020C143F1E77F0DFAD057
:1018400000206146ECE72442FAD1401C61410F03BD
:10185000F6D30020E2E780B5012000F005F801BDD5
:101860007047FEE77047FEE780B500BF00BF024A41
:1018700011001820ABBEFBE726000200F0B58FB0C8
:1018800000F0B8FD00F0B4FA00F0E9FA0124C34812
:101890000168214301600068204000900098002208
:1018A0000021092000F0B8FD092000F0D2FDBC4D58
:1018B000BC4868610026AE61EE612E626C62082051
:1018C000A862EE622E636E63AE63EE63C0012864AD
:1018D0006C64AE642800143000F0F8FD002800D0DD
:1018E000FEE700962703019720070290694628002B
:1018F000143000F0F3FE002800D0FEE700946946A3
:101900002800143000F0EAFE002800D0FEE7A648C8
:10191000286603206866AE663B20E8662E676E6721
:10192000AE672800603001F01FF8002800D0FEE705
:10193000029702A92800603001F0A8F9002800D021
:10194000FEE720200090019669462800603001F0F3
:101950003FFB002800D0FEE7944C954820631720F9
:101960006063A6639348E0632664A6642000303079
:1019700000F0FAFF002800D0FEE7099709A920002F
:10198000303001F083F9002800D0FEE7200030302D
:1019900001F058F8002800D0FEE70096019669464D
:1019A0002000303001F014FB002800D0FEE7602753
:1019B0000297E06B4008039004960696042202A961
:1019C0002000303001F0F2F8002800D0FEE72000BF
:1019D000303001F0FEFB2800A0300090D64800997E
:1019E000086017200099486000988660DA480099DE
:1019F000C86000980661009846610098866100986A
:101A000000F0B2FF002800D0FEE7009801F01AF8BD
:101A1000002800D0FEE70897C84809900A960B9660
:101A20000C960D960E96002208A9009801F0BEF8BB
:101A3000002800D0FEE701960296039604960596CC
:101A4000802080010690079601A9009801F0E8FA2D
:101A5000002800D0FEE79027FF05002280214900E2
:101A6000380001F0DCFC00220221BC4801F0D7FC68
:101A70002800143001F0ECFC039680200002029054
:101A8000019710200090B54B2A00F8322900E83168
:101A900004A801F041FD200004A91822FFF7A8FBCB
:101AA000AFA1200001F0CAFD00220121200001F0B9
:101AB000EBFD00BFAFA1200001F0C0FD002202211C
:101AC000200001F0E1FD00BFAEA1200001F0B6FD55
:101AD00000220321200001F0D7FD00BFADA12000AE
:101AE00001F0ACFD2800603000F089FF2800A03034
:101AF000009000F090FF022221001C3128001430D9
:101B000000F0A2FD8E480068E062206701F010FE40
:101B10008CA20CCAFFF73EFEFFF7AEFC2084042126
:101B20002000303000F0D9FF9620400001F019FE6F
:101B300004212000303000F0F3FFFA20800001F093
:101B400010FE0121200001F01FFD002200212000D5
:101B500001F09AFD94A1200001F070FD0022012106
:101B6000200001F091FD00BF94A1200001F066FD6E
:101B700000220221200001F087FD7449200001F0BD
:101B80005DFD00220321200001F07EFD7049200050
:101B900001F054FD6F4801905DE000BF1410024059
:101BA0000000002000240140002C01400001002022
:101BB00000040040710200004069002823D028681A
:101BC000019901F0DFFD01F035FE0700616A01981F
:101BD00001F0D8FD01F02EFE874214D00822012129
:101BE000200001F051FD0222616A200001F0D7FCC3
:101BF000606A2860627E0832D2B20221200001F0C1
:101C000043FD01206874A868E16A01F031FE07D144
:101C1000607E01F03DFE0100E86801F029FE16D06B
:101C200008220221200001F02FFD0222E16A20009B
:101C300001F0B5FC627E0832D2B20221200001F030
:101C400023FDE06AA860607E01F022FEE86001F0FA
:101C50003BFE0099086400F083F901F035FE00991D
:101C6000496C401AFA218900884204D904212000D5
:101C7000303000F055FF01F027FE0099096C401A42
:101C80006528E8D3287C217E022909D1884207D023
:101C900000220321200001F0F7FC00BF4CA108E066
:101CA00088420BD000220321200001F0EDFC00BF90
:101CB0004BA1200001F0C2FC207E287468680199C5
:101CC00001F060FD01F0B6FD0700A16A019801F086
:101CD00059FD01F0AFFD874212D0082200212000FB
:101CE00001F0D2FC0222A16A200001F058FCA06A97
:101CF0006860627E0832D2B20221200001F0C4FC8A
:101D000016484169002900D056E7697C002900D1B6
:101D100052E708220121200001F0B6FC0222002136
:101D2000200001F03CFC627E0832D2B20221200089
:101D300001F0AAFC6E7466E7004401401027000021
:101D40000070000877871403249AA83F9C2100089C
:101D5000B02100080000C842204E000000040048E6
:101D6000204349524355495420425245414B20207B
:101D70000000000048572056657273696F6E3A2064
:101D8000322E300046572056657273696F6E3A20C6
:101D9000322E3000202020426F6F74696E672E2E25
:101DA0002E202020000000005642617420203A209E
:101DB000202020202020205600000000494261748D
:101DC00020203A2020202020202020410000000058
:101DD000204F5645522043555252454E5420210023
:101DE0002020202020202020202020202020200013
:101DF00030B591B012200490012007900990102076
:101E000008900A9002240C9400250D95A0208003D0
:101E10000E900F9504A801F05DFD002800D0FEE7AC
:101E2000072000900194029503950121684601F076
:101E30002FFF002800D0FEE701F0DDFFFA21890026
:101E4000FFF751FC00F00CFB042000F01EFB002209
:101E500000210020C04300F0DFFA11B030BDF0B522
:101E600087B08021C903C04802680A430260026843
:101E70001140059105998021890202680A43026098
:101E800002681140059105998021C90202680A4340
:101E90000260006801400591059800221A21B348AC
:101EA00001F0BDFA00229F2109029020C00501F037
:101EB000B6FA032700970024019402946946AC48BF
:101EC00001F0DCF904200090019402260296694694
:101ED0009020C00501F0D2F908200090012501955D
:101EE0000296039769469020C00501F0C7F9E020EB
:101EF00000900194029469469020C00501F0BEF95B
:101F000010200090AF480190029469469020C005CF
:101F100001F0B4F90095019402946946934801F0E8
:101F2000ADF91A20009001950296039769468F48F3
:101F300001F0A4F99F2000020090019502960397FA
:101F400069469020C00501F099F90022012107207F
:101F500000F062FA072000F07CFA07B0F0BD000044
:101F6000F0B583B09025ED05BF4C974F3878002829
:101F700000D096E0012601217C4801F049FA0028B2
:101F80000CD100F027F93E70E06A01F0D1FB8FA27E
:101F90000CCAFFF7FFFBFFF76FFA2084202128000F
:101FA00001F036FA00280CD100F060F93E70E06ACA
:101FB00001F0BEFB85A20CCAFFF7ECFBFFF75CFA51
:101FC00020844021280001F023FA00280CD100F0E1
:101FD00075F93E70E06A01F0ABFB7CA20CCAFFF71A
:101FE000D9FBFFF749FA20848021280001F010FA7C
:101FF00000280CD100F0ACF93E70E06A01F098FBCB
:1020000072A20CCAFFF7C6FBFFF736FA2084E26A19
:102010001000216F01F02CFC14D02267A64801901B
:1020200002960020009001F093FF21007431684671
:1020300001F0FAFF226F636F9F49022001F006FF53
:1020400001F092FF0121494801F0E2F9002828D16E
:102050002021280001F0DCF9012822D140212800AC
:1020600001F0D6F900281CD18021280001F0D0F918
:10207000012816D1A07E401E8041C00FA076A07E10
:1020800001280DD104212000303000F026FD9620DB
:10209000400001F066FB04212000303000F040FDDC
:1020A0003E70324E0121300001F0B2F901283FD1DB
:1020B0002021280001F0ACF9002839D14021280066
:1020C00001F0A6F9012833D18021280001F0A0F900
:1020D00000282DD1200001F037FA0121200001F065
:1020E00053FA00220021200001F0CEFA21A12000A5
:1020F00001F0A4FA00220121200001F0C5FA00BF7E
:1021000021A1200001F09AFA00220221200001F012
:10211000BBFA00BF21A1200001F090FA00220321A8
:10212000200001F0B1FA00BF21A1200001F086FAE1
:102130000121300001F06CF9012813D12021280081
:1021400001F066F901280DD14021280001F060F965
:10215000012807D18021280001F05AF9012801D176
:102160000020387003B0F0BD141002400004004895
:1021700000140048564261743A202020202020207C
:102180002020205600000000494261743A2020209F
:1021900020202020202020410000000049427265BC
:1021A000616B3A20202020202020204100000000E8
:1021B000202020202020202020202020202020201F
:1021C0000000000000002110AB04002077871403FA
:1021D000249AA83F10B5244CE06A617E052930D8C6
:1021E00001A2525C974400BF06121E5A30426B494E
:1021F00001F082FF25D86A490BE06A4901F07CFFB3
:102200001FD8694905E0FE21890501F075FF18D83E
:10221000664901F085FF14E0654901F06DFF10D8B3
:1022200001F086FA63A20CCA07E0644901F064FF7A
:1022300007D801F07DFA6AA20CCAFFF761F901F034
:10224000FFFFE062A07E01280CD104212000303085
:1022500000F043FC142001F084FA04212000303007
:1022600000F05EFC10BD00000001002010B5544CD1
:10227000607E05280FD801A1095C8F4404080C1862
:102280001014012006E0022004E0042002E00520F2
:1022900000E000206076A07E01280CD104212000FF
:1022A000303000F01AFC142001F05BFA0421200009
:1022B000303000F035FC10BD0070000810B5404C07
:1022C000E06A617E052930D801A2525C974400BFC4
:1022D00006121E5A30423B4901F0E4FF25D22F4935
:1022E0000BE0394901F0DEFF1FD22E4905E03749E6
:1022F00001F0D8FF19D2FE21890501F011FF14E089
:10230000334901F0CFFF10D201F012FA31A20CCA0A
:1023100007E0324901F0C6FF07D201F009FA32A204
:102320000CCAFFF7EDF801F08BFFE062A07E0128F8
:102330000CD104212000303000F0CFFB142001F03C
:1023400010FA04212000303000F0EAFB10BD00003C
:1023500010B51B4C607E05280FD801A1095C8F4485
:1023600004080C181014052006E0002004E00120E9
:1023700002E0022000E004206076A07E01280CD15B
:1023800004212000303000F0A8FB142001F0E9F90E
:1023900004212000303000F0C3FB10BD0000C84213
:1023A0000000C8C200002041000020C1000080BF22
:1023B000CDCCCC3D9A9999999999B9BF0BD7233C2B
:1023C00000010020010070420100164301001F437C
:1023D00067E61F439A9999999999B93F71FD1F43EF
:1023E0007B14AE47E17A84BF7B14AE47E17A843F29
:1023F000FEE7FEE700B581B00648016810220A43F7
:102400000260002001F061FF00F04AFE002001B0F0
:1024100000BD00000020024010B481B0C2001823AB
:102420001340FF249C40E2438907090E994000288D
:1024300004D51C4B0007000F083800E01A4B800839
:102440008000181803681A401143016001B010BCE5
:1024500070470121C006C00E8140144801607047DA
:10246000401E1349884201D9012070471149486034
:10247000114802681202120AC0231B0613430360AC
:102480000020886007220A6070470A49042808680B
:1024900003D1042202430A6070470422904308607B
:1024A000704700001CED00E000E400E000E100E007
:1024B000FFFFFF0010E000E020ED00E000B581B07C
:1024C00000F002F801B000BD7047FEE7F0B581B042
:1024D00004000025002C01D10120ADE0260040368B
:1024E0007068002804D1B0603070200000F000FE59
:1024F00010227068104000D099E0206804218368A1
:102500000B4000D093E077684C4B3B4002271F43C1
:10251000776083689B079B0F012B05D10368DB075E
:102520000FD4C3681B040CD4C3681827BB43A76827
:102530001F43C760206803699B009B0867681F43AF
:1025400007612068C3683E4F1F40C760606B012869
:1025500001D0880200E000202369022B00D0002176
:10256000236A0093A3699B03E769FF031F43009B52
:102570005B033B431843E36803431943206B40006C
:102580000843616A01290ED10099002903D1010095
:102590001003084307E0716820230B437360B168A0
:1025A00001230B43B360A16AFF23C233994203D0D6
:1025B0000300E06A084318432168CB680343CB60FB
:1025C000A16B130699420DD001290BD0022909D025
:1025D000032907D0042905D0052903D0062901D0F5
:1025E00007290CD121684B690727BB434B61216840
:1025F0004B693827E75D7F077F0F1F434F6102213B
:10260000C94301232468E4680E4F2740874205D15F
:10261000B560706801400B4373600CE07068014066
:102620000A437260B0681843B060012503E0706827
:10263000024372600125280001B0F0BDFFFEFFFFDC
:102640001902FEFFE7FF3F83F6B581B007000025C2
:1026500000243868806840073CD44020385C01285A
:1026600001D1022038E0012640217E54F86901287A
:1026700004D0380000F0CCF804002CD1029B3800C4
:10268000403042685E49114032020A434260856030
:1026900005705C48F96B88625B48F96BC8625B48FF
:1026A000F96B08631C20396808603868416810229B
:1026B0000A4342603868C1680E43C660019A3968AF
:1026C0004031F86B01F04CFE3868816804220A43FF
:1026D000826000E00224200003B0F0BDF0B581B0BC
:1026E00004000025002600954020205C012801D12F
:1026F000022081E001204023E054226893685B07B8
:1027000070D40B6898404B686A4FBB42936A5AD0AA
:1027100018439062A06B8022520590421DD0012880
:102720001BD0022819D0032817D0042815D005285B
:1027300013D0062811D007280FD0226807208B68F5
:1027400057690740BB4208D05369834353612268ED
:1027500053698F68384018435061086810282FD09B
:10276000112846D18020C003534A136818431060D3
:10277000086810283DD1514800685149FEF7B3FF61
:1027800081000818400000900098002831D000987F
:10279000401E0090009800282BD00098401E00900A
:1027A0000098002825D00098401E0090009800282E
:1027B0001FD00098401E00900098002819D0E6E72E
:1027C00080200004D0E7834393620868102807D074
:1027D00011280ED15549384802681140016008E0BF
:1027E0005349F8E7210040314A68202313434B60E6
:1027F000012640202554300001B0F0BD000000004B
:10280000FEF1FFFFC52800083D2900084B290008FC
:1028100070B582B00500002000902868012481680E
:102820008907890F012905D1016821403FD1C1687D
:1028300009043CD481683F4A0A402FD18168214372
:1028400081601E4800681E49FEF74DFF0090009809
:10285000002817D00098401E00900098002811D042
:102860000098401E0090009800280BD00098401E51
:1028700000900098002805D00098401E0090009815
:102880000028E7D101F020F8060028680068204001
:102890000DD101F019F8801B0328F6D3686C1021C4
:1028A00001436964A86C0443AC64012000E000208B
:1028B00002B070BD0110000008270140780100201F
:1028C00040420F0010B5416A4A6C5023134029D191
:1028D000486C8022920002434A640868C268C023A0
:1028E0001B0113401AD10A6A002A17D10268120785
:1028F00014D5012283685B0709D443680C24A343E1
:102900004360486C0C4B03401A434A6406E0486C31
:10291000202303434B64886C02438A64080001F05F
:1029200068FD10BDC96B096B884710BDFFFFBFFF75
:10293000FFFF7FFF17000080FFFEFFFF00B581B0A3
:10294000406A01F057FD01B000BD00B581B0406A9A
:10295000416C40220A434264816C04220A4382642F
:1029600001F049FD01B000BD10B582B0040001D1F5
:10297000012042E03D20205C002804D13C2160542D
:10298000200000F0ECFB02203D216054206802682A
:102990002649884202D0264B984206D170239A439A
:1029A0001300A2681A4388420BD0214B984208D0EA
:1029B000204B984205D0204B984202D0204B9842A1
:1029C00003D11E4B134022691A4380239A43A36903
:1029D00013430360E268C26262688262884205D083
:1029E0001549884202D01649884201D161690163C4
:1029F000012141613D202154002002B010BD02217F
:102A00003D228154016801220B6813430B603D2174
:102A100042540020704700680121C2680A43C26026
:102A2000026811430160002070470000002C014043
:102A3000000400400020004000440140FFFCFFFF74
:102A40000048014010B582B0040001D1012042E0ED
:102A50003D20205C002804D13C216054200001F07E
:102A6000CBFC02203D216054206802682A4988423C
:102A700002D0484B984206D170239A431300A268B3
:102A80001A4388420BD0434B984208D0424B98429D
:102A900005D0224B984202D03B4B984203D13F4B8A
:102AA000134022691A4380239A43A36913430360A6
:102AB000E268C26262688262884205D01749884231
:102AC00002D03149884201D161690163012141612C
:102AD0003D202154002002B010BD81B000680122C9
:102AE00001238B40016A99430162016A0B4303622F
:102AF0000949884205D00949884202D022498842C2
:102B000003D1416CD3030B43436401680A43026061
:102B1000002001B070470000002C0140004401403B
:102B200030B481B0020014680123256A0120884076
:102B300085432562206A206210681949884205D0C1
:102B40001849884202D0104988420BD1016A0F4CC3
:102B50000C4007D1016A144C0C4003D1416C0C4C61
:102B60000C4044641068016A084C0C4006D1016AAC
:102B70000D4C0C4002D10168994301603D20135473
:102B8000002001B030BC7047004801401111000026
:102B9000FF7FFFFF0004004000200040FFFCFFFF1C
:102BA000002C01400044014044040000F0B581B015
:102BB00004003C20205C012801D1022061E00D00CE
:102BC00027003C3701263E7002203D216054002A38
:102BD00006D0042A16D0082A29D00C2A39D04CE075
:102BE0002900206800F016F92068816908220A434C
:102BF0008261206881690422914381612068816932
:102C00002A6911E02900206800F03BF920688169F9
:102C1000F2020A438261206881691B4A0A4082618C
:102C2000206881692A6912020A43826125E029002D
:102C3000206800F059F92068C16908220A43C2617E
:102C40002068C16904229143C1612068C1692A6971
:102C500011E02900206800F077F92068C169F202CC
:102C60000A43C2612068C169074A0A40C2612068FC
:102C7000C1692A6912020A43C2613D20265400201C
:102C8000387001B0F0BD0000FFFBFFFFF0B481B071
:102C90003C22825C012A01D10220B1E001223C24C5
:102CA000025502233D24035503689C68564D254078
:102CB0009D600B68002B00D183E0102B00D186E0D3
:102CC000202B00D189E0302B00D18CE0402B61D04B
:102CD000502B30D0602B45D0702B0CD01403A34266
:102CE00003D05403A34216D084E001688B68072404
:102CF000A3438B607EE0CB684C688D6801688E686A
:102D0000424F37403D432C431B0223438B600168F5
:102D10008B6877246CE0CB684C688D6801688E689E
:102D20003A4F37403D432C431B0223438B600168DD
:102D30008B6894035CE0CB6849680468256A2E467A
:102D400096432662A669F027BE431B013343A36165
:102D50000A239D432943216201688B687024A343A1
:102D6000572445E0CB6849680468256A1026B543B6
:102D70002562A769264E3E401B033343A361A0236F
:102D80009D4309012943216201688B687024A34394
:102D900067242DE0CB6849680468256A2E4696436F
:102DA0002662A669F027BE431B013343A3610A23B1
:102DB0009D432943216201688B687024A343472403
:102DC00016E001688B687024A343072410E00168B3
:102DD0008B687024A34317240AE001688B68702471
:102DE000A343272404E001688B687024A34337249D
:102DF0001C438C603D21425400213C228154002020
:102E000001B0F0BC704700008800FFFFFF00FFFF2B
:102E1000FF0FFFFF70B481B0026A01239A43026280
:102E2000046A4268856973239D430B682B4302251E
:102E3000AC438D682543584CA04205D0574EB04254
:102E400002D0574EB0420BD10826B5432E00CD68B4
:102E500035430426B543A04205D0504CA04202D0D1
:102E60004F4CA04205D14F4C14404E6926438A690D
:102E700032434260836149684163056201B070BCBE
:102E8000704770B4026A10239A430262026A436870
:102E90008469454D25400C6824022C432025AA4313
:102EA0008D682D0115433C4A904208D180229543FC
:102EB0002E00CA68150135434022954305E0374A84
:102EC000904202D0364A904206D1384A1A404B69A5
:102ED0008E691E43B3001343436084614968816374
:102EE000056270BC7047000070B4026A304B13403A
:102EF0000362046A4268C56973239D430B682B43D0
:102F00002C4D25408C6824022C43234DA84207D128
:102F1000294D2540CC6826022E43284C344005E03C
:102F20001E4DA84202D01E4DA84206D1244D154088
:102F30004A698E69164332012A434260C361496877
:102F4000C163046270BC704730B4026A1D4B134009
:102F50000362036A4268C469134D25400C68240269
:102F60002C43194D1D408B681B032B430A4DA8426F
:102F700005D00A4DA84202D0094DA84204D1134DF4
:102F800015404A6992012A434260C461496801645C
:102F9000036230BC70470000002C01400044014037
:102FA00000480140FFFCFFFFFF8CFFFFFFF3FFFF26
:102FB000FFFEFFFFFFFDFFFFFFF7FFFFFFFBFFFF30
:102FC000FFCFFFFFFFEFFFFFFFDFFFFFFFBFFFFFB1
:102FD00070B43C22825C012A01D102201EE0020072
:102FE0003C320123137002243D2544550468656872
:102FF0007026B5436560046865680E682E43666098
:103000000468A5688026B543A5600468A56849687A
:103010002943A1603D2143540020107070BC7047CB
:1030200070B43C22825C012A01D1022028E0020017
:103030003C320123137002243D2544558C69CD6830
:10304000114E2E408D683543104E2E404D6835434D
:103050000F4E2E400D6835430E4E2E400D69354300
:103060000D4E2E40496931430C4D0D402543054915
:1030700029400C4301684C643D21435400201070EA
:1030800070BC7047FF7FFFFFFFFCFFFFFFFBFFFFF0
:10309000FFF7FFFFFFEFFFFFFFDFFFFFFFBFFFFFB8
:1030A00000B581B0012056490A6802430A600A68E7
:1030B000104000900098802040054A6802434A6012
:1030C0004968084000900098002200210420C04375
:1030D000FFF7A2F9002200210120C043FFF79CF96D
:1030E000002200210020C043FFF796F901B000BD87
:1030F00070B586B006003068424988422DD1480D2F
:103100003F490A6802430A60096808400090009835
:103110000320019002900024039401A99020C0058F
:1031200000F0ACF8384D394828606C60AC60802005
:10313000E86080302861800068612020A861C0209C
:103140008001E861280001F0D3F8002803D069214C
:1031500033A0FFF74DF9F5636E6206B070BD00B5A0
:1031600081B000682A49884209D1C90C2448026804
:103170000A430260006801400091009827E0254959
:1031800088420FD102211E4842680A4342604068CB
:10319000014000910098002203211020FFF73CF924
:1031A000102012E01C49884211D180218902144864
:1031B00002680A4302600068014000910098002202
:1031C00003211520FFF728F91520FFF742F901B078
:1031D00000BD00680F49884200D0704700B585B037
:1031E00020200090022001900020029003900120F6
:1031F00004906946094800F041F805B000BD0000A0
:103200001810024000240140F00300200800024092
:10321000002C01400004004000440140000400482C
:10322000433A5C55736572735C6C756361732076A9
:1032300069746F7269616E6F5C4465736B746F70F3
:103240005C43697263756974427265616B5F6F722A
:103250006967696E202D20436F70696120283229CB
:103260005C5372635C73746D3332663078785F6878
:10327000616C5F6D73702E6300000000F0B485B068
:103280000A0000230F2104911168002900D1BCE03D
:10329000010001240120984003901068039D05401F
:1032A00001950198002800D1AAE05068022801D0B9
:1032B00012280DD1D80880000D18286A1C279E00FE
:1032C0003740049EBE40B0431669BE4006432E629E
:1032D0000D6868465E00067003206E463778032648
:1032E000BE40F74302973E462E40556805406F4664
:1032F0003F78BD4035430D605568012D05D0022D46
:1033000003D0112D01D0122D11D18E68029D3540B0
:10331000D6686F463F78BE402E438E604D68039E50
:10332000B5435668360926409E402E434E60CE680F
:10333000029D354096686F463F78BE402E43CE6072
:103340002507566835405BD03B4D2E6826432E60DE
:103350002D6825400095009D384D9E08B600AD199A
:1033600000952D680C269F003E40049FB740BD434A
:103370009027FF05B94201D100240DE0304FB9423A
:103380000AD0304CA14201D1022405E02E4CA142CA
:1033900001D1032400E00524B4402C4300980460CC
:1033A0002A480468019DAC4380256D02566835406B
:1033B00002D02500019C2C4304604568019EF44323
:1033C00025408026B60257683E4002D02E00019D5F
:1033D00035434560856825408026760357683E4022
:1033E00002D02E00019D35438560C5682C408025A4
:1033F000AD035668354002D02500019C2C43C460C3
:103400005B1C1068D84000D043E705B0F0BC7047A3
:1034100000690840401E8041C043C00F704781B022
:10342000002A01D0816100E0816201B070474269E9
:103430004A404261704700001810024008000140F5
:103440000004004800080048000C00480004014047
:10345000F0B583B00500002769460F704020285C56
:10346000012801D1022052E0012440216C54286837
:10347000032182680A40012A0ED10268224002D14B
:10348000C268120408D528004030416820220A434F
:1034900042606846047036E02A00403256681D4B90
:1034A000334002261E435660C26811400191C16834
:1034B00003229143C16028688168802212060A4372
:1034C000826000F001FA06002868816800290FD5A3
:1034D00000F0FAF9801B0328F6D328004030416839
:1034E0000222914310220A434260077001200EE03D
:1034F000C168019A0A43C260280040304168022234
:1035000091430C43446040202F546846007803B038
:10351000F0BD00BFFFFEFFFFF1B586B00C980D9D1A
:103520000E9E0F9F6C46A775A6820495A0810293FC
:1035300001920091684600F007F806986946182243
:10354000FDF756FE07B0F0BD10B50400A07D0028C1
:1035500009D13321200000F0A7F83221200000F02B
:10356000A3F8282100E03821200000F09DF8012177
:10357000200000F099F80C21200000F095F80621B9
:10358000200000F091F810BD00B581B0002901D0F5
:103590000F2100E00C2100F087F801B000BDF0B56C
:1035A00083B007000E001500300000F043F904005E
:1035B000642C03DA1DA1380000F040F80A2C03DA6D
:1035C0001AA1380000F03AF8220019A1684600F06C
:1035D00015FF6946380000F031F816A1380000F0F8
:1035E0002DF8200000F064F90100300000F0D0FD5B
:1035F000290018D0104900F0C5F8060000F01AF9AB
:1036000004000BA12200684600F0F8FE694638006D
:1036100000F014F8200000F04BF90100300000F039
:10362000B7FD6D1EE6D103B0F0BD00002000000024
:10363000256400002E00000000002041F0B581B09C
:10364000002406000F003800FDF7A4FDE4B2844218
:1036500018D23D5D0122B189B068FFF7E0FEB07D70
:10366000002802D00822290007E00422290930009E
:1036700000F036F80F2104222940300000F030F825
:10368000641CE0E701B0F0BD30B581B06B4600BF0F
:1036900026A425681D60595C8A1880211143C9B28F
:1036A00000F002F801B030BD30B581B005000C006B
:1036B0000022A989A868FFF7B2FEA87D002808D1DA
:1036C00004222109280000F00BF804222107090F29
:1036D00001E008222100280000F002F801B030BD0E
:1036E000F0B581B005000024100010D017000E00C6
:1036F0003000E040C207D20F68686100415A286874
:10370000A300C058FFF78BFE641CBC42F0DB012213
:10371000A98A2869FFF783FE022000F022F8002220
:10372000A98A2869FFF77BFE01B0F0BD0040105068
:10373000012212060118CA420AD28A420DD8382242
:10374000120609098918C20FD207114340077047B2
:1037500000D049080909014301E0C10FC907002051
:10376000704731B500F0B0F80400009D0020C04360
:10377000854200D06D1C00F0A7F8001BA842FAD3C8
:1037800001B030BD30B405004D400122D2071540D4
:103790004B180418240E2ED01B0E32D0FF2C34D020
:1037A000FF2B3AD0E4180002090210431143000A2B
:1037B000090A9446C2B24A43000AC3B24B43000A04
:1037C0004843110A5B181A43D2B2190A091801D4E6
:1037D0004918641E080A7F3C23DBFE2C08DAE40546
:1037E00009061143634699416041284330BC704744
:1037F000FF20C005F9E728001B0EFF2BF6D1D043B0
:10380000F4E72800FF2CF1D1F9E74002F7D1FF2BB4
:1038100001D14902F3D1E005E7E7D8054902E4D038
:10382000EDE743020020641CDFD15B129B1CDCD956
:10383000D805DAE70122D2070118090E7F3910D422
:1038400049421F310FD4001805D2C0011043C840AF
:1038500000D5D0437047C0011043C84005D4404252
:103860007047002070470042F3D510007047FEE714
:10387000944602000A43921808D0884206D10122D9
:1038800012060018D042084600D8804262467047AF
:103890009D2102000AD002D4491E9218FCD5C90508
:1038A000100A1206524100D3012A48417047000015
:1038B0009D210200EED55242F446FFF7EBFF0122B4
:1038C000D20710436047FEE701480068704700BF19
:1038D000A0040020F1B582B0B54C0078C00700D438
:1038E00004E10C2061680140042906D061680840A9
:1038F00008280DD16068C0030AD52068800300D471
:10390000F4E002984068002800D0EFE00120BBE11D
:1039100002984068012804D12068802149020143AF
:1039200015E0002801D120680BE00528206808D1A7
:103930008021C9020143216020688021490201439E
:1039400005E09C490140216020689B4901402160BD
:103950008025AD020298406800280DD0FFF7B4FF23
:1039600006002068284000D0C0E0FFF7ADFF801BB4
:103970006528F6D3032087E1FFF7A6FF060020683D
:10398000284000D1B2E0FFF79FFF801B6528F6D3E7
:10399000F0E7FFF799FF801B022800D8D8E0E9E79D
:1039A0000298C068002820680FD0012101432160DF
:1039B000FFF78AFF06002068284000D0B0E0FFF73C
:1039C00083FF801B0228F6D9D4E7012188432060B9
:1039D000FFF77AFF06002068284000D1A8E0FFF733
:1039E00073FF801B0228F6D9C4E701218843606277
:1039F000FFF76AFF0600606A284000D1ACE0FFF7DD
:103A000063FF801B0228F6D9B4E7002801D1206AA1
:103A100009E00528206A06D138432062206A012186
:103A20000143216205E0012188432062206AB843F6
:103A300020620298806800280FD0FFF745FF934965
:103A400000910600206A284000D0BDE0FFF73CFF4F
:103A5000801B00998842F5D38CE7FFF735FF8B492F
:103A600000910600206A284000D1ADE0FFF72CFF4E
:103A7000801B00998842F5D37CE7FFF725FF801B68
:103A8000022800D8B9E075E7FFF71EFF801B022867
:103A900000D8D3E06EE70420C043814203D1616BBC
:103AA00008406063ADE0606B07436763606B0121B2
:103AB00088436063FFF708FF0600606B284000D171
:103AC000A7E0FFF701FF801B0228F6D952E701406B
:103AD0002160FFF7F9FE06002068284000D1D2E0FF
:103AE000FFF7F2FE801B0228F6D943E70225029871
:103AF000006828401CD00C206168014008D0616833
:103B00000840082800D04BE76068C00300D547E7AD
:103B10002068284004D00298C068012800D0F5E64B
:103B20002068F821884302990969C900014321608E
:103B30000298007800070FD50298C0690028606AD3
:103B400000D152E7012101436162FFF7BDFE06008B
:103B5000606A284000D11CE70427029800683840BA
:103B600039D000200190E806E169014008D1E169FF
:103B70000143E161E1690840009000980120019053
:103B80008D480068C00519D48B480168820D0A432E
:103B90000260FFF799FE0600A00D874909680840FA
:103BA0000CD1FFF791FE801B6528F5D3E2E600BF3C
:103BB00000100240FFFFFEFFFFFFFBFF029880683E
:103BC000012800D021E729E70198002803D0E06907
:103BD0008A490140E16102980078C00619D502982F
:103BE0004169012900D056E7606B07436763606B4A
:103BF00001436163FFF768FE0600606B284000D157
:103C00003BE7606BF821884302998969C900014349
:103C100061630298006A002835D061680C220A406E
:103C2000082A00D172E62D0675490228206800D0C6
:103C30004DE701402160FFF747FE0600206828405D
:103C400000D021E7E06A0F2188430299C96A014345
:103C5000E16260686B4901400298806A08430299FA
:103C6000496A014361602068690801432160FFF7E8
:103C70002BFE06002068284005D1FFF725FE801B9B
:103C80000228F7D976E6002003B0F0BD89130000C2
:103C9000F2B582B001245C4909682140029A914240
:103CA0000AD259490A68A243029B13430B60096870
:103CB0002140029A914272D10090544D0220009905
:103CC0000968014006D06968F0229143009A926821
:103CD0000A436A6000990968214050D000994968F8
:103CE000012902D12868800303E0022903D1286852
:103CF000800103D453E02A68104050D06868032242
:103D0000904301436960FFF7DFFD060000984068BB
:103D10000C2701280BD16868384004282FD0FFF702
:103D2000D3FD801B3A498842F5D3032025E00228C1
:103D300037D168683840082821D0FFF7C5FD801BBF
:103D400033498842F5D3F0E700980078400706D55C
:103D50006868304901400098C0680843686000F016
:103D60002DF82D496A681206120F895CC8402B494C
:103D70000860002000F0A9FA002003B0F0BD22483E
:103D80000299026822409142DED20168A143029A60
:103D90000A4302600068044002988442D4D00120A3
:103DA000EBE768683840EAD0FFF78EFD801B1849C2
:103DB0008842F6D3B9E700000070004010B51848FB
:103DC00002680C211140082913D10F2117A3940C6C
:103DD0000C401C5D836AD00307D5124817A2194016
:103DE000515CFDF780FC604310BD0F484443200048
:103DF00010BD0C4810BD094800687047FFFFFFEF79
:103E0000FFFFFFFEFFFFC2FF002002400010024044
:103E100089130000FFF8FFFF004800087801002028
:103E20000410024000127A0000093D00020304055C
:103E3000060708090A0B0C0D0E0F101001020304EF
:103E400005060708090A0B0C0D0E0F10F0B581B01E
:103E50000CB482B004000F004748007E012801D155
:103E6000022014E0012044490876FFF72DFD434D60
:103E7000060043480121006801403FD0FFF724FDC0
:103E8000801BA842F5D3032000213B4A117605B0E0
:103E9000F0BD00F0A1F80120F6E7022C01D10222CA
:103EA00000E00422002402A803C8019702AB03C368
:103EB000083B00922E46324F00202F49C861012056
:103EC00079680843786002A803C8220100F0B6FAB6
:103ED0000199620089180880FFF7F6FC05000120AF
:103EE000396808401BD0FFF7EFFC401BB042F6D307
:103EF000032022E000F070F801201EE02048016855
:103F0000890601D5202101600068C006C1D41C4883
:103F100000684007BDD4012CBFD10122C2E7202197
:103F20003A680A4000D0396010213A681140E1D166
:103F3000042138680140DDD100207A6801239A43CA
:103F40007A600100A0D1641C00998C42B4DB9BE72D
:103F50003048C168090605D52F4901602F49016025
:103F600000207047012070472948016880220A43D9
:103F700002600020704700003804002051C3000098
:103F80000C200240F0B581B00600FFF79DFC012433
:103F9000234D0700286820400FD00020C0438642F0
:103FA000F8D0002E04D0FFF78FFCC01B8642F1D260
:103FB000032000E0002001B0F0BD2020296801406E
:103FC00000D028602868C00602D428684007F1D5D0
:103FD00000F002F80120EEE730B400211022104872
:103FE0000368134005D00F49CB6902241C43CC6100
:103FF0001021042302681A4007D00A4AD469012517
:104000002543D5610A0004211143016030BC70478B
:10401000102002400420024023016745AB89EFCD08
:104020000C20024038040020F0B583B00D000121BF
:1040300001272E4C227E012A01D1022051E00600E8
:1040400021763068012818D1294E3000FFF79AFFF9
:10405000002843D1E061274D2868042101432960ED
:1040600028684021014329603000FFF78BFF0700DB
:10407000286804218843286030E01D48FFF782FF4C
:1040800000282BD100950020C04328607168194D8D
:10409000019601200E0001E0290D7618019989682A
:1040A0008902019A526889188E421CD20020E06170
:1040B00002202968084328606E6040202968084370
:1040C00028600B48FFF75EFF0221C9432A681140B0
:1040D00029600100E0D007000098066000202076EB
:1040E000380003B0F0BD0700F8E7000038040020F6
:1040F00050C30000102002400CB401221206031825
:10410000DA4207D84B18DA4204D802000A43921860
:1041100002D281420CBC7047FCD088420CBC704774
:104120000122D20703004B402ED4431A01D2C01AF9
:10413000C91830B44B180418240E1B0E22D0FF2CC3
:1041400020D0E31A182B1DDC09021143C40D641E94
:104150000002104394461925ED1A0A00AA40D940DE
:10416000451801D36D08A41CE405D209280A2D06C0
:104170002A436546AA41604103181B0EFF2B01D359
:10418000C00DC00530BC7047514006E05140CCE73F
:104190000122D20703004B40F8D4431A03D2C01ABD
:1041A000C9185040514030B44B180902114304184B
:1041B000240E1B0E40D0FF2C3AD025009D410BD37E
:1041C0001ED8C50D4002401A0BD3ED050100400A70
:1041D000C90591416841D5E7C50D40024918401A0B
:1041E000D0D001214008491C0018FCD58C4204D3D2
:1041F0006D1A000AED054019C4E7E8051040C1E753
:10420000182DBFDCAC1C0D00E140E5414D40012DF7
:104210004941C40D00021043451A01D46D1995435C
:10422000641EE405280A2D069541604130BC7047A4
:10423000FF2BA7D1D843A5E72442A3D10020A1E7B3
:10424000012252054B18DA4201D9581570475B0D0F
:104250000722D2019B1A10D9FF2B1DD2DB050122A8
:10426000D2070A4013430903020D1143490AC20051
:10427000524100D9491CC81870470AD1800A0A0364
:1042800002435212921C04D9D3070B40D0051843A5
:104290007047C80FC0077047C80F0002FF30C00545
:1042A0007047FEE70CB4012212060318DA4207D861
:1042B0004B18DA4204D802000A43921802D288420C
:1042C0000CBC7047FCD08142FAE710B50400FFF740
:1042D00092FDFA218900FDF706FAFEF7C1F80022E7
:1042E00021000020C043FEF797F8002010BDFEE734
:1042F00010B5040001D1012010BD0220212160541D
:1043000020680168134A0A4061681143A2680A43A1
:10431000E168114322690A4361691143A2690A43B2
:10432000E1691143016020680B4940181421FDF731
:10433000DAF9800020640948E0630020A062E062AE
:1043400020636063A06301212122A15420216054D5
:1043500010BD00000FC0FFFFF8FFFDBF00000240CE
:10436000F2B481B0002500212024045D012C01D18C
:1043700002203BE001262027C65502242127C75DE5
:10438000012F2FD10093019B2127C4558563046819
:104390002568B5432560046C0125A540C46B6560A4
:1043A000009C05686C604468102C046803D1A2600E
:1043B0000268D36002E0A3600368DA6002680A233F
:1043C000C46A002C146801D0234305E02343136022
:1043D000026813680424A34313600068026816434C
:1043E000066002E0202145540221080002B0F0BC22
:1043F00070477047704770477047FEE70CB418B5B8
:1044000083B004000A0006A80290019400200090E6
:1044100002AB01A9084878441E30FBF749FE002191
:10442000019A1170002801D40198001B04B0019971
:1044300010BC03B0084700BF6BCCFFFFD2B2203ADC
:1044400003D30800D040002170472032D141D04032
:1044500048409140D14048407047FEE7704700B562
:1044600081B06420FFF77DF9FBE77047704700B526
:1044700081B000F08DF9FEF721F801B000BD30B534
:1044800081B0102039490860FFF71EFA384C2168C6
:10449000401AC9281BD30A20FFF763F99025ED05C0
:1044A00010212800FEF7B4FF00280DD1802149001B
:1044B0002800FEF7BCFF02219748FEF7B8FF012055
:1044C0009649087097490870FFF7FEF9206001B01F
:1044D00030BD70B502249248016C02228A40C06B44
:1044E00042609026F605012208213000FEF797FF72
:1044F0008C4D2889801CA98888420EDA28780228E9
:104500000AD0A878012807D104218748FEF7E5FAE8
:10451000FFF7DAF9854908602C70A88884494A6851
:104520001218CB68EC881B190C88641CA4B2814D4E
:10453000AC4204D100248A600B61002200230C806D
:10454000CB604A6075490978002908D07A490A8801
:10455000FA2A04D08B4C5300E052521C0A800022ED
:1045600008213000FEF75BFF70BD0000140401401D
:104570009C040020F0B583B00120C0436F49096856
:1045800008616F4C6068A06026686660684FB86814
:10459000FCF79CFF6BA20CCAFCF779FE00226B4B68
:1045A000FDF7F8F8FFF74CFE2060694D6968A960D7
:1045B00029686960FFF7BCF86EA20CCAFCF767FEB9
:1045C000009001913000FFF7B3F868A20CCAFCF725
:1045D0005EFE009A019BFCF793FF00900191A0689A
:1045E000FFF7A6F863A20CCAFCF751FE009A019BE4
:1045F000FCF786FF009001916868FFF799F85FA2C9
:104600000CCAFCF744FE02000B0000980199FCF76D
:10461000DAFF00900191A868FFF78AF85AA20CCA45
:10462000FCF735FE02000B0000980199FCF7CBFF68
:10463000FFF706FE286080210904FFF75DFD00D921
:104640000020384EF060434C6068A06020686060D5
:1046500038693849FDF747F8FCF738FF3EA20CCA25
:10466000FCF715FE00223E4BFCF711FE00223D4BED
:10467000FDF790F8FFF7E4FD20603B4D6968A96005
:104680002F686F60FFF754F83AA20CCAFCF7FFFDE1
:10469000009001916068FFF74BF834A20CCAFCF758
:1046A000F6FD009A019BFCF72BFF00900191A0689A
:1046B000FFF73EF82FA20CCAFCF7E9FD009A019B18
:1046C000FCF71EFF009001913800FFF731F82BA294
:1046D0000CCAFCF7DCFD02000B0000980199FCF706
:1046E00072FF00900191A868FFF722F826A20CCA79
:1046F000FCF7CDFD02000B0000980199FCF763FF69
:10470000FFF79EFD286080210904FFF7F5FC00D922
:104710000020306103B0F0BD00040048AA0400206E
:10472000F00300201801002030010020E4000020E8
:1047300058040020CF070000A8040020A00000209B
:104740006C04002077871403249AA83F003C9F4004
:1047500078040020840400206666666666660A4067
:104760000000264000FEAF40900400202A249BB9A0
:104770002D9EEF3F21249BB92D9EDF3FD7244A2455
:1047800017B8E63FFC010020F846D89D8808D13FC5
:1047900002480168491C0160704700BFA004002066
:1047A0001148016801220A43026041680F4A0A4029
:1047B000426001680E4A0A40026001680D4A0A40E0
:1047C000026041680C4A0A404260C16A0F2291436C
:1047D000C162016B094A0A400263416B01229143A5
:1047E0004163002181607047001002400CB8FF084F
:1047F000FFFFF6FEFFFFFBFFFFFFC0FFECFEFFFF2A
:104800000000000000000000010203040607080980
:1048100070B40123002413E00168001D194202D086
:104820004D466D1E49190C60091D121F042AFAD24B
:104830000D00960701D50C80AD1C1A4000D02C70DD
:104840000268001D002AE7D170BC704730B50168CE
:104850004118446862088A188368E4070DD54C46FD
:104860001B190AE00C7864B2491C0D78491C1D70B4
:104870005B1C002C05D5641CF9D19142F2D10C309F
:1048800030BD641EF1D5F8E710B5074979441831F9
:10489000064C7C44163404E0081D0A6889188847D1
:1048A0000100A142F8D110BD080000002400000062
:1048B00061FFFFFFB0020000FC01002000000000CB
:1048C0008DFFFFFF94000000EA00000000000020C0
:1048D00000F00DF8002801D0FFF7D6FF00BF00BFA1
:1048E000002000BF00BFFCF7C9FF00F002F8012064
:1048F000704780B500F002F801BDFEE70746384674
:10490000FCF7B2FFFBE7FF2902D90020C043704744
:104910000170012070470078401E8041C043C00FE5
:104920007047FEE76E616E004E414E00696E660094
:10493000494E46000148804701480047A14700080A
:104940004549000800BF00BF00BF00BFFFF7C0FF20
:1049500000002E004300FEE7F000FE018100A600EB
:104960000048FD000048FD000048FD000848001018
:10497000000800040002E700FE01A2001E127A00F7
:1049800050490008504900085049000850490008A3
:10499000504900085049000850490008F8FF0B52E0
:1049A0004900085049000850490008FAFF06000075
:1049B0005449000801FD00037C010020D8000317C2
:0D49C000490008FC00040749000801F90047
:040000050800494561
:00000001FF
